{
  "_format": "hh-sol-artifact-1",
  "contractName": "PollContract",
  "sourceName": "contracts/poll.sol",
  "abi": [
    {
      "anonymous": false,
      "inputs": [
        {
          "indexed": false,
          "internalType": "uint256",
          "name": "id",
          "type": "uint256"
        },
        {
          "indexed": false,
          "internalType": "address",
          "name": "creator",
          "type": "address"
        },
        {
          "indexed": false,
          "internalType": "string",
          "name": "title",
          "type": "string"
        },
        {
          "indexed": false,
          "internalType": "string",
          "name": "description",
          "type": "string"
        },
        {
          "indexed": false,
          "internalType": "uint256",
          "name": "optionsCount",
          "type": "uint256"
        }
      ],
      "name": "PollCreated",
      "type": "event"
    },
    {
      "anonymous": false,
      "inputs": [
        {
          "indexed": false,
          "internalType": "uint256",
          "name": "pollId",
          "type": "uint256"
        },
        {
          "indexed": false,
          "internalType": "address",
          "name": "voter",
          "type": "address"
        },
        {
          "indexed": false,
          "internalType": "uint256",
          "name": "optionId",
          "type": "uint256"
        }
      ],
      "name": "Voted",
      "type": "event"
    },
    {
      "inputs": [
        {
          "internalType": "string",
          "name": "_title",
          "type": "string"
        },
        {
          "internalType": "string",
          "name": "_description",
          "type": "string"
        },
        {
          "internalType": "string[]",
          "name": "_options",
          "type": "string[]"
        }
      ],
      "name": "createPoll",
      "outputs": [],
      "stateMutability": "nonpayable",
      "type": "function"
    },
    {
      "inputs": [
        {
          "internalType": "uint256",
          "name": "_pollId",
          "type": "uint256"
        },
        {
          "internalType": "uint256",
          "name": "_optionId",
          "type": "uint256"
        }
      ],
      "name": "getOption",
      "outputs": [
        {
          "internalType": "string",
          "name": "",
          "type": "string"
        },
        {
          "internalType": "uint256",
          "name": "",
          "type": "uint256"
        }
      ],
      "stateMutability": "view",
      "type": "function"
    },
    {
      "inputs": [
        {
          "internalType": "uint256",
          "name": "_pollId",
          "type": "uint256"
        }
      ],
      "name": "getPoll",
      "outputs": [
        {
          "internalType": "uint256",
          "name": "",
          "type": "uint256"
        },
        {
          "internalType": "address",
          "name": "",
          "type": "address"
        },
        {
          "internalType": "string",
          "name": "",
          "type": "string"
        },
        {
          "internalType": "string",
          "name": "",
          "type": "string"
        },
        {
          "internalType": "uint256",
          "name": "",
          "type": "uint256"
        }
      ],
      "stateMutability": "view",
      "type": "function"
    },
    {
      "inputs": [],
      "name": "pollCount",
      "outputs": [
        {
          "internalType": "uint256",
          "name": "",
          "type": "uint256"
        }
      ],
      "stateMutability": "view",
      "type": "function"
    },
    {
      "inputs": [
        {
          "internalType": "uint256",
          "name": "",
          "type": "uint256"
        }
      ],
      "name": "polls",
      "outputs": [
        {
          "internalType": "uint256",
          "name": "id",
          "type": "uint256"
        },
        {
          "internalType": "address",
          "name": "creator",
          "type": "address"
        },
        {
          "internalType": "string",
          "name": "title",
          "type": "string"
        },
        {
          "internalType": "string",
          "name": "description",
          "type": "string"
        },
        {
          "internalType": "uint256",
          "name": "optionsCount",
          "type": "uint256"
        },
        {
          "internalType": "bool",
          "name": "exists",
          "type": "bool"
        }
      ],
      "stateMutability": "view",
      "type": "function"
    },
    {
      "inputs": [
        {
          "internalType": "uint256",
          "name": "_pollId",
          "type": "uint256"
        },
        {
          "internalType": "uint256",
          "name": "_optionId",
          "type": "uint256"
        }
      ],
      "name": "vote",
      "outputs": [],
      "stateMutability": "nonpayable",
      "type": "function"
    },
    {
      "inputs": [
        {
          "internalType": "uint256",
          "name": "",
          "type": "uint256"
        },
        {
          "internalType": "address",
          "name": "",
          "type": "address"
        }
      ],
      "name": "voters",
      "outputs": [
        {
          "internalType": "bool",
          "name": "",
          "type": "bool"
        }
      ],
      "stateMutability": "view",
      "type": "function"
    }
  ],
  "bytecode": "0x60806040526000805534801561001457600080fd5b506113c2806100246000396000f3fe608060405234801561001057600080fd5b506004361061007d5760003560e01c80639e3190631161005b5780639e31906314610105578063ac2f007414610135578063b384abef1461016a578063cfba7a09146101865761007d565b80631a8cbcaa146100825780631ce30927146100b65780639207891d146100e7575b600080fd5b61009c60048036038101906100979190610d1e565b6101a2565b6040516100ad95949392919061100b565b60405180910390f35b6100d060048036038101906100cb9190610d83565b610374565b6040516100de929190610f40565b60405180910390f35b6100ef6104e0565b6040516100fc9190610ff0565b60405180910390f35b61011f600480360381019061011a9190610d47565b6104e6565b60405161012c9190610f25565b60405180910390f35b61014f600480360381019061014a9190610d1e565b610515565b6040516101619695949392919061106c565b60405180910390f35b610184600480360381019061017f9190610d83565b61068e565b005b6101a0600480360381019061019b9190610c87565b6108b1565b005b6000806060806000806001600088815260200190815260200160002090508060060160009054906101000a900460ff16610211576040517f08c379a000000000000000000000000000000000000000000000000000000000815260040161020890610fd0565b60405180910390fd5b80600001548160010160009054906101000a900473ffffffffffffffffffffffffffffffffffffffff168260020183600301846005015482805461025490611245565b80601f016020809104026020016040519081016040528092919081815260200182805461028090611245565b80156102cd5780601f106102a2576101008083540402835291602001916102cd565b820191906000526020600020905b8154815290600101906020018083116102b057829003601f168201915b505050505092508180546102e090611245565b80601f016020809104026020016040519081016040528092919081815260200182805461030c90611245565b80156103595780601f1061032e57610100808354040283529160200191610359565b820191906000526020600020905b81548152906001019060200180831161033c57829003601f168201915b50505050509150955095509550955095505091939590929450565b60606000806001600086815260200190815260200160002090508060060160009054906101000a900460ff166103df576040517f08c379a00000000000000000000000000000000000000000000000000000000081526004016103d690610fd0565b60405180910390fd5b80600501548410610425576040517f08c379a000000000000000000000000000000000000000000000000000000000815260040161041c90610f90565b60405180910390fd5b6000816004016000868152602001908152602001600020905080600001816001015481805461045390611245565b80601f016020809104026020016040519081016040528092919081815260200182805461047f90611245565b80156104cc5780601f106104a1576101008083540402835291602001916104cc565b820191906000526020600020905b8154815290600101906020018083116104af57829003601f168201915b505050505091509350935050509250929050565b60005481565b60026020528160005260406000206020528060005260406000206000915091509054906101000a900460ff1681565b60016020528060005260406000206000915090508060000154908060010160009054906101000a900473ffffffffffffffffffffffffffffffffffffffff169080600201805461056490611245565b80601f016020809104026020016040519081016040528092919081815260200182805461059090611245565b80156105dd5780601f106105b2576101008083540402835291602001916105dd565b820191906000526020600020905b8154815290600101906020018083116105c057829003601f168201915b5050505050908060030180546105f290611245565b80601f016020809104026020016040519081016040528092919081815260200182805461061e90611245565b801561066b5780601f106106405761010080835404028352916020019161066b565b820191906000526020600020905b81548152906001019060200180831161064e57829003601f168201915b5050505050908060050154908060060160009054906101000a900460ff16905086565b60006001600084815260200190815260200160002090508060060160009054906101000a900460ff166106f6576040517f08c379a00000000000000000000000000000000000000000000000000000000081526004016106ed90610fd0565b60405180910390fd5b6002600084815260200190815260200160002060003373ffffffffffffffffffffffffffffffffffffffff1673ffffffffffffffffffffffffffffffffffffffff16815260200190815260200160002060009054906101000a900460ff1615610794576040517f08c379a000000000000000000000000000000000000000000000000000000000815260040161078b90610fb0565b60405180910390fd5b806005015482106107da576040517f08c379a00000000000000000000000000000000000000000000000000000000081526004016107d190610f90565b60405180910390fd5b806004016000838152602001908152602001600020600101600081548092919061080390611277565b919050555060016002600085815260200190815260200160002060003373ffffffffffffffffffffffffffffffffffffffff1673ffffffffffffffffffffffffffffffffffffffff16815260200190815260200160002060006101000a81548160ff0219169083151502179055507f1abe610cf2bf87e57dcc1181fcf5ac0934e843d8344ab9eed6e86c799f62585e8333846040516108a4939291906110db565b60405180910390a1505050565b6002815110156108f6576040517f08c379a00000000000000000000000000000000000000000000000000000000081526004016108ed90610f70565b60405180910390fd5b60008081548092919061090890611277565b91905055506000600160008054815260200190815260200160002090506000548160000181905550338160010160006101000a81548173ffffffffffffffffffffffffffffffffffffffff021916908373ffffffffffffffffffffffffffffffffffffffff1602179055508381600201908051906020019061098b929190610acb565b50828160030190805190602001906109a4929190610acb565b508151816005018190555060018160060160006101000a81548160ff02191690831515021790555060005b8251811015610a80576040518060400160405280848381518110610a1c577f4e487b7100000000000000000000000000000000000000000000000000000000600052603260045260246000fd5b6020026020010151815260200160008152508260040160008381526020019081526020016000206000820151816000019080519060200190610a5f929190610acb565b50602082015181600101559050508080610a7890611277565b9150506109cf565b507fc7f4691c28a70ce38d0f30eae0bf3f9c754c690f3a4fca81b298bef183c9e6f481600001543386868651604051610abd95949392919061100b565b60405180910390a150505050565b828054610ad790611245565b90600052602060002090601f016020900481019282610af95760008555610b40565b82601f10610b1257805160ff1916838001178555610b40565b82800160010185558215610b40579182015b82811115610b3f578251825591602001919060010190610b24565b5b509050610b4d9190610b51565b5090565b5b80821115610b6a576000816000905550600101610b52565b5090565b6000610b81610b7c84611143565b611112565b9050808382526020820190508260005b85811015610bc15781358501610ba78882610c48565b845260208401935060208301925050600181019050610b91565b5050509392505050565b6000610bde610bd98461116f565b611112565b905082815260208101848484011115610bf657600080fd5b610c01848285611203565b509392505050565b600081359050610c188161135e565b92915050565b600082601f830112610c2f57600080fd5b8135610c3f848260208601610b6e565b91505092915050565b600082601f830112610c5957600080fd5b8135610c69848260208601610bcb565b91505092915050565b600081359050610c8181611375565b92915050565b600080600060608486031215610c9c57600080fd5b600084013567ffffffffffffffff811115610cb657600080fd5b610cc286828701610c48565b935050602084013567ffffffffffffffff811115610cdf57600080fd5b610ceb86828701610c48565b925050604084013567ffffffffffffffff811115610d0857600080fd5b610d1486828701610c1e565b9150509250925092565b600060208284031215610d3057600080fd5b6000610d3e84828501610c72565b91505092915050565b60008060408385031215610d5a57600080fd5b6000610d6885828601610c72565b9250506020610d7985828601610c09565b9150509250929050565b60008060408385031215610d9657600080fd5b6000610da485828601610c72565b9250506020610db585828601610c72565b9150509250929050565b610dc8816111bb565b82525050565b610dd7816111cd565b82525050565b6000610de88261119f565b610df281856111aa565b9350610e02818560208601611212565b610e0b8161134d565b840191505092915050565b6000610e23601d836111aa565b91507f4174206c656173742074776f206f7074696f6e732072657175697265640000006000830152602082019050919050565b6000610e63600e836111aa565b91507f496e76616c6964206f7074696f6e0000000000000000000000000000000000006000830152602082019050919050565b6000610ea3600d836111aa565b91507f416c726561647920766f746564000000000000000000000000000000000000006000830152602082019050919050565b6000610ee36013836111aa565b91507f506f6c6c20646f6573206e6f74206578697374000000000000000000000000006000830152602082019050919050565b610f1f816111f9565b82525050565b6000602082019050610f3a6000830184610dce565b92915050565b60006040820190508181036000830152610f5a8185610ddd565b9050610f696020830184610f16565b9392505050565b60006020820190508181036000830152610f8981610e16565b9050919050565b60006020820190508181036000830152610fa981610e56565b9050919050565b60006020820190508181036000830152610fc981610e96565b9050919050565b60006020820190508181036000830152610fe981610ed6565b9050919050565b60006020820190506110056000830184610f16565b92915050565b600060a0820190506110206000830188610f16565b61102d6020830187610dbf565b818103604083015261103f8186610ddd565b905081810360608301526110538185610ddd565b90506110626080830184610f16565b9695505050505050565b600060c0820190506110816000830189610f16565b61108e6020830188610dbf565b81810360408301526110a08187610ddd565b905081810360608301526110b48186610ddd565b90506110c36080830185610f16565b6110d060a0830184610dce565b979650505050505050565b60006060820190506110f06000830186610f16565b6110fd6020830185610dbf565b61110a6040830184610f16565b949350505050565b6000604051905081810181811067ffffffffffffffff821117156111395761113861131e565b5b8060405250919050565b600067ffffffffffffffff82111561115e5761115d61131e565b5b602082029050602081019050919050565b600067ffffffffffffffff82111561118a5761118961131e565b5b601f19601f8301169050602081019050919050565b600081519050919050565b600082825260208201905092915050565b60006111c6826111d9565b9050919050565b60008115159050919050565b600073ffffffffffffffffffffffffffffffffffffffff82169050919050565b6000819050919050565b82818337600083830152505050565b60005b83811015611230578082015181840152602081019050611215565b8381111561123f576000848401525b50505050565b6000600282049050600182168061125d57607f821691505b60208210811415611271576112706112ef565b5b50919050565b6000611282826111f9565b91507fffffffffffffffffffffffffffffffffffffffffffffffffffffffffffffffff8214156112b5576112b46112c0565b5b600182019050919050565b7f4e487b7100000000000000000000000000000000000000000000000000000000600052601160045260246000fd5b7f4e487b7100000000000000000000000000000000000000000000000000000000600052602260045260246000fd5b7f4e487b7100000000000000000000000000000000000000000000000000000000600052604160045260246000fd5b6000601f19601f8301169050919050565b611367816111bb565b811461137257600080fd5b50565b61137e816111f9565b811461138957600080fd5b5056fea26469706673582212209237fec2f190feb03ef55d2da53be8ead8c4ddd568cc4ced184fb211aad8eaa264736f6c63430008000033",
  "linkReferences": {},
  "deployedLinkReferences": {}
}