{
  "_format": "hh-sol-artifact-1",
  "contractName": "PollContract",
  "sourceName": "contracts/poll.sol",
  "abi": [
    {
      "anonymous": false,
      "inputs": [
        {
          "indexed": false,
          "internalType": "uint256",
          "name": "id",
          "type": "uint256"
        },
        {
          "indexed": false,
          "internalType": "address",
          "name": "creator",
          "type": "address"
        },
        {
          "indexed": false,
          "internalType": "string",
          "name": "title",
          "type": "string"
        },
        {
          "indexed": false,
          "internalType": "string",
          "name": "description",
          "type": "string"
        },
        {
          "indexed": false,
          "internalType": "uint256",
          "name": "optionsCount",
          "type": "uint256"
        }
      ],
      "name": "PollCreated",
      "type": "event"
    },
    {
      "anonymous": false,
      "inputs": [
        {
          "indexed": false,
          "internalType": "uint256",
          "name": "pollId",
          "type": "uint256"
        },
        {
          "indexed": false,
          "internalType": "address",
          "name": "voter",
          "type": "address"
        },
        {
          "indexed": false,
          "internalType": "uint256",
          "name": "optionId",
          "type": "uint256"
        }
      ],
      "name": "Voted",
      "type": "event"
    },
    {
      "inputs": [
        {
          "internalType": "string",
          "name": "_title",
          "type": "string"
        },
        {
          "internalType": "string",
          "name": "_description",
          "type": "string"
        },
        {
          "internalType": "string[]",
          "name": "_options",
          "type": "string[]"
        }
      ],
      "name": "createPoll",
      "outputs": [],
      "stateMutability": "nonpayable",
      "type": "function"
    },
    {
      "inputs": [
        {
          "internalType": "uint256",
          "name": "_pollId",
          "type": "uint256"
        },
        {
          "internalType": "uint256",
          "name": "_optionId",
          "type": "uint256"
        }
      ],
      "name": "getOption",
      "outputs": [
        {
          "internalType": "string",
          "name": "",
          "type": "string"
        },
        {
          "internalType": "uint256",
          "name": "",
          "type": "uint256"
        }
      ],
      "stateMutability": "view",
      "type": "function"
    },
    {
      "inputs": [
        {
          "internalType": "uint256",
          "name": "_pollId",
          "type": "uint256"
        }
      ],
      "name": "getPoll",
      "outputs": [
        {
          "internalType": "uint256",
          "name": "",
          "type": "uint256"
        },
        {
          "internalType": "address",
          "name": "",
          "type": "address"
        },
        {
          "internalType": "string",
          "name": "",
          "type": "string"
        },
        {
          "internalType": "string",
          "name": "",
          "type": "string"
        },
        {
          "internalType": "uint256",
          "name": "",
          "type": "uint256"
        }
      ],
      "stateMutability": "view",
      "type": "function"
    },
    {
      "inputs": [],
      "name": "pollCount",
      "outputs": [
        {
          "internalType": "uint256",
          "name": "",
          "type": "uint256"
        }
      ],
      "stateMutability": "view",
      "type": "function"
    },
    {
      "inputs": [
        {
          "internalType": "uint256",
          "name": "",
          "type": "uint256"
        }
      ],
      "name": "polls",
      "outputs": [
        {
          "internalType": "uint256",
          "name": "id",
          "type": "uint256"
        },
        {
          "internalType": "address",
          "name": "creator",
          "type": "address"
        },
        {
          "internalType": "string",
          "name": "title",
          "type": "string"
        },
        {
          "internalType": "string",
          "name": "description",
          "type": "string"
        },
        {
          "internalType": "uint256",
          "name": "optionsCount",
          "type": "uint256"
        },
        {
          "internalType": "bool",
          "name": "exists",
          "type": "bool"
        }
      ],
      "stateMutability": "view",
      "type": "function"
    },
    {
      "inputs": [
        {
          "internalType": "uint256",
          "name": "_pollId",
          "type": "uint256"
        },
        {
          "internalType": "uint256",
          "name": "_optionId",
          "type": "uint256"
        }
      ],
      "name": "vote",
      "outputs": [],
      "stateMutability": "nonpayable",
      "type": "function"
    }
  ],
  "bytecode": "0x60806040526000805534801561001457600080fd5b506112a7806100246000396000f3fe608060405234801561001057600080fd5b50600436106100625760003560e01c80631a8cbcaa146100675780631ce309271461009b5780639207891d146100cc578063ac2f0074146100ea578063b384abef1461011f578063cfba7a091461013b575b600080fd5b610081600480360381019061007c9190610c71565b610157565b604051610092959493929190610f07565b60405180910390f35b6100b560048036038101906100b09190610c9a565b610329565b6040516100c3929190610e3c565b60405180910390f35b6100d4610495565b6040516100e19190610eec565b60405180910390f35b61010460048036038101906100ff9190610c71565b61049b565b60405161011696959493929190610f68565b60405180910390f35b61013960048036038101906101349190610c9a565b610614565b005b61015560048036038101906101509190610bda565b610819565b005b6000806060806000806001600088815260200190815260200160002090508060070160009054906101000a900460ff166101c6576040517f08c379a00000000000000000000000000000000000000000000000000000000081526004016101bd90610ecc565b60405180910390fd5b80600001548160010160009054906101000a900473ffffffffffffffffffffffffffffffffffffffff168260020183600301846005015482805461020990611141565b80601f016020809104026020016040519081016040528092919081815260200182805461023590611141565b80156102825780601f1061025757610100808354040283529160200191610282565b820191906000526020600020905b81548152906001019060200180831161026557829003601f168201915b5050505050925081805461029590611141565b80601f01602080910402602001604051908101604052809291908181526020018280546102c190611141565b801561030e5780601f106102e35761010080835404028352916020019161030e565b820191906000526020600020905b8154815290600101906020018083116102f157829003601f168201915b50505050509150955095509550955095505091939590929450565b60606000806001600086815260200190815260200160002090508060070160009054906101000a900460ff16610394576040517f08c379a000000000000000000000000000000000000000000000000000000000815260040161038b90610ecc565b60405180910390fd5b806005015484106103da576040517f08c379a00000000000000000000000000000000000000000000000000000000081526004016103d190610e8c565b60405180910390fd5b6000816004016000868152602001908152602001600020905080600001816001015481805461040890611141565b80601f016020809104026020016040519081016040528092919081815260200182805461043490611141565b80156104815780601f1061045657610100808354040283529160200191610481565b820191906000526020600020905b81548152906001019060200180831161046457829003601f168201915b505050505091509350935050509250929050565b60005481565b60016020528060005260406000206000915090508060000154908060010160009054906101000a900473ffffffffffffffffffffffffffffffffffffffff16908060020180546104ea90611141565b80601f016020809104026020016040519081016040528092919081815260200182805461051690611141565b80156105635780601f1061053857610100808354040283529160200191610563565b820191906000526020600020905b81548152906001019060200180831161054657829003601f168201915b50505050509080600301805461057890611141565b80601f01602080910402602001604051908101604052809291908181526020018280546105a490611141565b80156105f15780601f106105c6576101008083540402835291602001916105f1565b820191906000526020600020905b8154815290600101906020018083116105d457829003601f168201915b5050505050908060050154908060070160009054906101000a900460ff16905086565b60006001600084815260200190815260200160002090508060070160009054906101000a900460ff1661067c576040517f08c379a000000000000000000000000000000000000000000000000000000000815260040161067390610ecc565b60405180910390fd5b8060060160003373ffffffffffffffffffffffffffffffffffffffff1673ffffffffffffffffffffffffffffffffffffffff16815260200190815260200160002060009054906101000a900460ff161561070b576040517f08c379a000000000000000000000000000000000000000000000000000000000815260040161070290610eac565b60405180910390fd5b80600501548210610751576040517f08c379a000000000000000000000000000000000000000000000000000000000815260040161074890610e8c565b60405180910390fd5b806004016000838152602001908152602001600020600101600081548092919061077a90611173565b919050555060018160060160003373ffffffffffffffffffffffffffffffffffffffff1673ffffffffffffffffffffffffffffffffffffffff16815260200190815260200160002060006101000a81548160ff0219169083151502179055507f1abe610cf2bf87e57dcc1181fcf5ac0934e843d8344ab9eed6e86c799f62585e83338460405161080c93929190610fd7565b60405180910390a1505050565b60028151101561085e576040517f08c379a000000000000000000000000000000000000000000000000000000000815260040161085590610e6c565b60405180910390fd5b60008081548092919061087090611173565b91905055506000600160008054815260200190815260200160002090506000548160000181905550338160010160006101000a81548173ffffffffffffffffffffffffffffffffffffffff021916908373ffffffffffffffffffffffffffffffffffffffff160217905550838160020190805190602001906108f3929190610a33565b508281600301908051906020019061090c929190610a33565b508151816005018190555060018160070160006101000a81548160ff02191690831515021790555060005b82518110156109e8576040518060400160405280848381518110610984577f4e487b7100000000000000000000000000000000000000000000000000000000600052603260045260246000fd5b60200260200101518152602001600081525082600401600083815260200190815260200160002060008201518160000190805190602001906109c7929190610a33565b506020820151816001015590505080806109e090611173565b915050610937565b507fc7f4691c28a70ce38d0f30eae0bf3f9c754c690f3a4fca81b298bef183c9e6f481600001543386868651604051610a25959493929190610f07565b60405180910390a150505050565b828054610a3f90611141565b90600052602060002090601f016020900481019282610a615760008555610aa8565b82601f10610a7a57805160ff1916838001178555610aa8565b82800160010185558215610aa8579182015b82811115610aa7578251825591602001919060010190610a8c565b5b509050610ab59190610ab9565b5090565b5b80821115610ad2576000816000905550600101610aba565b5090565b6000610ae9610ae48461103f565b61100e565b9050808382526020820190508260005b85811015610b295781358501610b0f8882610b9b565b845260208401935060208301925050600181019050610af9565b5050509392505050565b6000610b46610b418461106b565b61100e565b905082815260208101848484011115610b5e57600080fd5b610b698482856110ff565b509392505050565b600082601f830112610b8257600080fd5b8135610b92848260208601610ad6565b91505092915050565b600082601f830112610bac57600080fd5b8135610bbc848260208601610b33565b91505092915050565b600081359050610bd48161125a565b92915050565b600080600060608486031215610bef57600080fd5b600084013567ffffffffffffffff811115610c0957600080fd5b610c1586828701610b9b565b935050602084013567ffffffffffffffff811115610c3257600080fd5b610c3e86828701610b9b565b925050604084013567ffffffffffffffff811115610c5b57600080fd5b610c6786828701610b71565b9150509250925092565b600060208284031215610c8357600080fd5b6000610c9184828501610bc5565b91505092915050565b60008060408385031215610cad57600080fd5b6000610cbb85828601610bc5565b9250506020610ccc85828601610bc5565b9150509250929050565b610cdf816110b7565b82525050565b610cee816110c9565b82525050565b6000610cff8261109b565b610d0981856110a6565b9350610d1981856020860161110e565b610d2281611249565b840191505092915050565b6000610d3a601d836110a6565b91507f4174206c656173742074776f206f7074696f6e732072657175697265640000006000830152602082019050919050565b6000610d7a600e836110a6565b91507f496e76616c6964206f7074696f6e0000000000000000000000000000000000006000830152602082019050919050565b6000610dba600d836110a6565b91507f416c726561647920766f746564000000000000000000000000000000000000006000830152602082019050919050565b6000610dfa6013836110a6565b91507f506f6c6c20646f6573206e6f74206578697374000000000000000000000000006000830152602082019050919050565b610e36816110f5565b82525050565b60006040820190508181036000830152610e568185610cf4565b9050610e656020830184610e2d565b9392505050565b60006020820190508181036000830152610e8581610d2d565b9050919050565b60006020820190508181036000830152610ea581610d6d565b9050919050565b60006020820190508181036000830152610ec581610dad565b9050919050565b60006020820190508181036000830152610ee581610ded565b9050919050565b6000602082019050610f016000830184610e2d565b92915050565b600060a082019050610f1c6000830188610e2d565b610f296020830187610cd6565b8181036040830152610f3b8186610cf4565b90508181036060830152610f4f8185610cf4565b9050610f5e6080830184610e2d565b9695505050505050565b600060c082019050610f7d6000830189610e2d565b610f8a6020830188610cd6565b8181036040830152610f9c8187610cf4565b90508181036060830152610fb08186610cf4565b9050610fbf6080830185610e2d565b610fcc60a0830184610ce5565b979650505050505050565b6000606082019050610fec6000830186610e2d565b610ff96020830185610cd6565b6110066040830184610e2d565b949350505050565b6000604051905081810181811067ffffffffffffffff821117156110355761103461121a565b5b8060405250919050565b600067ffffffffffffffff82111561105a5761105961121a565b5b602082029050602081019050919050565b600067ffffffffffffffff8211156110865761108561121a565b5b601f19601f8301169050602081019050919050565b600081519050919050565b600082825260208201905092915050565b60006110c2826110d5565b9050919050565b60008115159050919050565b600073ffffffffffffffffffffffffffffffffffffffff82169050919050565b6000819050919050565b82818337600083830152505050565b60005b8381101561112c578082015181840152602081019050611111565b8381111561113b576000848401525b50505050565b6000600282049050600182168061115957607f821691505b6020821081141561116d5761116c6111eb565b5b50919050565b600061117e826110f5565b91507fffffffffffffffffffffffffffffffffffffffffffffffffffffffffffffffff8214156111b1576111b06111bc565b5b600182019050919050565b7f4e487b7100000000000000000000000000000000000000000000000000000000600052601160045260246000fd5b7f4e487b7100000000000000000000000000000000000000000000000000000000600052602260045260246000fd5b7f4e487b7100000000000000000000000000000000000000000000000000000000600052604160045260246000fd5b6000601f19601f8301169050919050565b611263816110f5565b811461126e57600080fd5b5056fea26469706673582212208369638dba4e5d04b983e5685a78739dd810c2c79d3dd05935964def47ccbe3064736f6c63430008000033",
  "linkReferences": {},
  "deployedLinkReferences": {}
}